:100000000C943E000C945B000C945B000C945B0021
:100010000C945B000C945B000C945B000C945B00F4
:100020000C945B000C945B000C945B000C945B00E4
:100030000C945B000C945B000C945B000C945B00D4
:100040000C945B000C945B000C9449020C945B00D4
:100050000C94AD000C945B000C945B000C945B0062
:100060000C945B000C945B000C945B000C945B00A4
:100070000C945B000C945B000C945B0011241FBE7D
:10008000CFEFD4E0DEBFCDBF11E0A0E0B1E0E6E904
:10009000F7E002C005900D92A830B107D9F711E042
:1000A000A8E0B1E001C01D92A631B107E1F70E94BE
:1000B00096020C94C9030C940000FA012081822F4F
:1000C000817090E021FF06C0892B11F02C9A0895D1
:1000D0002C980895892B11F02E9A08952E98089542
:1000E00088EC90E00E94A20290931101809310018D
:1000F0009C0128533F4F30930901209308019093AE
:100100000D0180930C0190930B0180930A011092D2
:100110000F0110920E0178945498539A8DE08093B9
:10012000C80080E28093CC008CE090E09093CE00F9
:100130008093CD00EAECF0E08081826080830895B6
:1001400010920F0110920E0181E08093C8008091FF
:100150001001909111010C943A031F920F920FB667
:100160000F9211242F933F938F939F93EF93FF93BD
:10017000E0910C01F0910D0180910A0190910B0129
:10018000E817F907E1F080818093D20080910C019B
:1001900090910D01019690930D0180930C01209197
:1001A0000801309109018217930791F480911001A1
:1001B0009091110190930D0180930C0109C0109250
:1001C0000F0110920E018091C90082608093C900D6
:1001D000FF91EF919F918F913F912F910F900FBEC3
:1001E0000F901F90189580910E0190910F0101972B
:1001F00061F1E0910C01F0910D0180910A01909163
:100200000B01E817F90709F181E090E090930F01E5
:1002100080930E0180818093D20080910C01909197
:100220000D01019690930D0180930C01209108011E
:10023000309109018217930741F480911001909148
:10024000110190930D0180930C0180E090E00895DE
:10025000CF93DF93FC0101900020E9F73197E81B71
:10026000F90BDC019D01281B390B2E173F0704F504
:10027000C0910A01D0910B012D91288320910A0190
:1002800030910B012F5F3F4F30930B0120930A01F8
:1002900040910801509109012417350719F7209161
:1002A00010013091110130930B0120930A01DACF34
:1002B0000E94F30080E090E0DF91CF910895789460
:1002C00091E09093D8001092E50098E09093E200BE
:1002D00094E09093E30093E19093E40090EA90938C
:1002E000DB001092DF0097E09093DE0090E0292F72
:1002F0002295207F2093ED001092EF001092EE00E7
:100300009F5F9630A1F790E29093ED0095E0909377
:10031000F4001092F0001092F5001092F10010928B
:10032000F6001092F20098EF9093F70028E0829F79
:10033000C00111248093F30088E88093EF00539A62
:100340008091D80082608093D80080E090E008958A
:100350000F931F93CF93DF93CDB7DEB70DB71EB7C3
:100360008091ED00807F8093ED002091EF002F7051
:10037000822F90E04DB75EB7481B590B0FB6F8942B
:100380005EBF0FBE4DBF4F5F5F4FFA01BF01641BE1
:10039000750B6817790724F43091FA003193F6CF82
:1003A0003091F3008091F20061E070E0FB0102C047
:1003B000EE0FFF1F8A95E2F7CF01807E9927E5E0D7
:1003C00095958795EA95E1F702C0660F771F3A95F4
:1003D000E2F7F3E0660F771FFA95E1F7862B972B8C
:1003E000682F6F73807C0E945D008091EF008068B1
:1003F0008093EF000FB6F8941EBF0FBE0DBFDF91C4
:10040000CF911F910F910895CF93DF9398E0909330
:10041000ED009091DC0090FDFCCF9091DC009160AC
:100420009093DC001092EE00FA01A22FB0E0EF01F1
:10043000C41BD50BCA17DB0724F491919093FA00E3
:10044000F6CF1092F0001092F1008F7130E4839F8C
:10045000C00111246F73862B382F3295330F307EF5
:100460003093F200A3E096958795AA95E1F78093E3
:10047000F30020642093EF008091EE0086FFFCCF14
:100480001092EF001092EE0080E090E0DF91CF91AB
:1004900008951F920F920FB60F9211242F933F933E
:1004A0004F935F936F937F938F939F93AF93BF937C
:1004B000CF93EF93FF93CFB78091EC009091ED0035
:1004C0009F709093ED009091ED00807F892B809339
:1004D000ED008091EE0085FF08C08091EE008F7DD9
:1004E0008093EE000E94A8010EC08091EE0086FF6E
:1004F00006C08091EE008F7B8093EE0004C0809157
:10050000EE001092EE00CFBFFF91EF91CF91BF911F
:10051000AF919F918F917F916F915F914F913F919B
:100520002F910F900FBE0F901F90189584B18FEFF1
:1005300084B9389856986A9A6998809100010E9407
:100540005F01FFCFCF93DF938230910510F482E0FB
:1005500090E0E0911401F091150120E030E0A0E07E
:10056000B0E0309739F14081518148175907B8F010
:100570004817590771F482819381109729F01396D7
:100580009C938E9312972CC0909315018093140125
:1005900027C02115310531F04217530718F0A90182
:1005A000DB0101C0EF019A01BD01DF010280F3818F
:1005B000E02DD7CF21153105F9F0281B390B243058
:1005C000310580F48A819B816115710521F0FB0161
:1005D0009383828304C09093150180931401FE01DC
:1005E000329644C0FE01E20FF31F81939193225093
:1005F0003109398328833AC02091120130911301C7
:10060000232B41F420910401309105013093130113
:10061000209312012091020130910301211531052F
:1006200041F42DB73EB74091060150910701241BBC
:10063000350BE0911201F0911301E217F307A0F4DA
:100640002E1B3F0B2817390778F0AC014E5F5F4F28
:100650002417350748F04E0F5F1F50931301409346
:1006600012018193919302C0E0E0F0E0CF01DF91AD
:10067000CF910895CF93DF93009709F487C0FC01D1
:10068000329713821282C0911401D09115012097E4
:1006900081F420813181280F391F809112019091BE
:1006A00013018217930779F5F0931301E093120178
:1006B0006DC0DE0120E030E0AE17BF0750F41296A7
:1006C0004D915C9113979D014115510509F1DA0196
:1006D000F3CFB383A28340815181840F951F8A1782
:1006E0009B0771F48D919C911197840F951F029631
:1006F0009183808312968D919C911397938382832B
:100700002115310529F4F0931501E09314013EC041
:10071000D9011396FC93EE9312974D915D91A40F1E
:10072000B51FEA17FB0779F480819181840F951F2B
:100730000296D90111969C938E9382819381139690
:100740009C938E931297E0E0F0E08A819B81009762
:1007500019F0FE01EC01F9CFCE0102962881398112
:10076000820F931F2091120130911301281739072E
:1007700069F4309729F4109215011092140102C007
:1007800013821282D0931301C0931201DF91CF9193
:060790000895F894FFCF6C
:080796000C0000001601200018
:00000001FF
