:100000000C943E000C945B000C945B000C945B0021
:100010000C945B000C945B000C945B000C945B00F4
:100020000C945B000C945B000C945B000C945B00E4
:100030000C945B000C945B000C945B000C945B00D4
:100040000C945B000C945B000C945B000C945B00C4
:100050000C949A000C945B000C945B000C945B0075
:100060000C945B000C945B000C945B000C945B00A4
:100070000C945B000C945B000C945B0011241FBE7D
:10008000CFEFD4E0DEBFCDBF11E0A6E0B1E001C00C
:100090001D92A431B107E1F711E0A0E0B1E0E4EF77
:1000A000F4E002C005900D92A630B107D9F70E9486
:1000B0004C010C9478020C94000088EC90E00E94B3
:1000C000510190930F0180930E019C0128533F4FE3
:1000D000309307012093060190930B0180930A014E
:1000E000909309018093080110920D0110920C0168
:1000F00078945498539A8DE08093C80080E280935E
:10010000CC008CE090E09093CE008093CD00EAECA0
:10011000F0E0808182608083089510920D0110923A
:100120000C0181E08093C80080910E0190910F0135
:100130000C94E9011F920F920FB60F9211242F9386
:100140003F938F939F93EF93FF93E0910A01F09178
:100150000B018091080190910901E817F907E1F07E
:1001600080818093D20080910A0190910B010196C9
:1001700090930B0180930A012091060130910701B1
:100180008217930791F480910E0190910F01909343
:100190000B0180930A0109C010920D0110920C010D
:1001A0008091C90082608093C900FF91EF919F9177
:1001B0008F913F912F910F900FBE0F901F90189528
:1001C00080910C0190910D01019761F1E0910A017C
:1001D000F0910B018091080190910901E817F9074E
:1001E00009F181E090E090930D0180930C018081F2
:1001F0008093D20080910A0190910B010196909317
:100200000B0180930A0120910601309107018217AA
:10021000930741F480910E0190910F0190930B018F
:1002200080930A0180E090E00895CF93DF93FC0172
:1002300001900020E9F73197E81BF90BDC019D01E3
:10024000281B390B2E173F0704F5C0910801D091E8
:1002500009012D91288320910801309109012F5F18
:100260003F4F3093090120930801409106015091BE
:1002700007012417350719F720910E0130910F015E
:100280003093090120930801DACF0E94E00080E05A
:1002900090E0DF91CF91089584B18FEF84B92C9ACB
:1002A000FFCFCF93DF938230910510F482E090E08E
:1002B000E0911201F091130120E030E0A0E0B0E005
:1002C000309739F14081518148175907B8F04817E4
:1002D000590771F482819381109729F013969C93AA
:1002E0008E9312972CC0909313018093120127C014
:1002F0002115310531F04217530718F0A901DB0130
:1003000001C0EF019A01BD01DF010280F381E02D00
:10031000D7CF21153105F9F0281B390B24303105D1
:1003200080F48A819B816115710521F0FB01938323
:10033000828304C09093130180931201FE013296D0
:1003400044C0FE01E20FF31F8193919322503109C3
:10035000398328833AC02091100130911101232B59
:1003600041F4209102013091030130931101209357
:10037000100120910001309101012115310541F456
:100380002DB73EB74091040150910501241B350B58
:10039000E0911001F0911101E217F307A0F42E1B78
:1003A0003F0B2817390778F0AC014E5F5F4F2417D9
:1003B000350748F04E0F5F1F509311014093100115
:1003C0008193919302C0E0E0F0E0CF01DF91CF9103
:1003D0000895CF93DF93009709F487C0FC0132970B
:1003E00013821282C0911201D0911301209781F4DF
:1003F00020813181280F391F8091100190911101C6
:100400008217930779F5F0931101E09310016DC005
:10041000DE0120E030E0AE17BF0750F412964D9198
:100420005C9113979D014115510509F1DA01F3CF54
:10043000B383A28340815181840F951F8A179B0744
:1004400071F48D919C911197840F951F0296918361
:10045000808312968D919C911397938382832115AB
:10046000310529F4F0931301E09312013EC0D90144
:100470001396FC93EE9312974D915D91A40FB51FC7
:10048000EA17FB0779F480819181840F951F02960A
:10049000D90111969C938E938281938113969C939C
:1004A0008E931297E0E0F0E08A819B81009719F02B
:1004B000FE01EC01F9CFCE01029628813981820F2D
:1004C000931F20911001309111012817390769F409
:1004D000309729F4109213011092120102C0138276
:1004E0001282D0931101C0931001DF91CF91089532
:0404F000F894FFCFAE
:0604F400000014012000CD
:00000001FF
