:100000000C943E000C945B000C945B000C945B0021
:100010000C945B000C945B000C945B000C947E00D1
:100020000C945B000C945B000C94AB000C945B0094
:100030000C945B000C945B000C945B000C945B00D4
:100040000C945B000C945B000C94DA020C945B0043
:100050000C943E010C945B000C945B000C945B00D0
:100060000C945B000C945B000C945B000C945B00A4
:100070000C945B000C945B000C945B0011241FBE7D
:10008000CFEFD4E0DEBFCDBF11E0A0E0B1E0EEEBFA
:10009000F8E002C005900D92AA30B107D9F711E03F
:1000A000AAE0B1E001C01D92A831B107E1F70E94BA
:1000B00027030C945D040C94000081E48093690094
:1000C00089E08DBB80E090E008951F93CF93DF938C
:1000D0001F92CDB7DEB71FB7672B11F0498301C060
:1000E000298321E0AE014F5F5F4F6AE00E949502D5
:1000F0001FBF0F90DF91CF911F9108951F920F9214
:100100000FB60F9211242F933F934F935F936F93EA
:100110007F938F939F93AF93BF93EF93FF9369B1B7
:10012000607470E020E041E0809100019091010155
:100130000E946500FF91EF91BF91AF919F918F91C8
:100140007F916F915F914F913F912F910F900FBED3
:100150000F901F9018951F920F920FB60F921124B7
:100160002F933F934F935F936F937F938F939F93BF
:10017000AF93BF93EF93FF9366B1617022E043E0CA
:1001800070E080910001909101010E946500FF9153
:10019000EF91BF91AF919F918F917F916F915F91FF
:1001A0004F913F912F910F900FBE0F901F90189578
:1001B000FA012081822F817090E021FF06C0892BF7
:1001C00011F02C9A08952C980895892B11F02E9AED
:1001D00008952E98089580EA8093DB001092DF0046
:1001E00087E08093DE0080E0982F9295907F909337
:1001F000ED001092EF001092EE008F5F8630A1F7B5
:10020000089588EC90E00E94360390931301809348
:1002100012019C0128533F4F30930B0120930A0198
:1002200090930F0180930E0190930D0180930C0128
:10023000109211011092100178945498539A8DE005
:100240008093C80080E28093CC008CE090E0909393
:10025000CE008093CD00EAECF0E080818260808364
:100260000895109211011092100181E08093C8004E
:1002700080911201909113010C94CE031F920F9262
:100280000FB60F9211242F933F938F939F93EF9369
:10029000FF93E0910E01F0910F0180910C0190917C
:1002A0000D01E817F907E1F080818093D200809179
:1002B0000E0190910F01019690930F0180930E0112
:1002C00020910A0130910B018217930791F48091DC
:1002D00012019091130190930F0180930E0109C0B8
:1002E00010921101109210018091C90082608093D8
:1002F000C900FF91EF919F918F913F912F910F90A6
:100300000FBE0F901F9018958091100190911101D0
:10031000019761F1E0910E01F0910F0180910C01C4
:1003200090910D01E817F90709F181E090E09093B1
:1003300011018093100180818093D20080910E0181
:1003400090910F01019690930F0180930E012091DF
:100350000A0130910B018217930741F48091120139
:100360009091130190930F0180930E0180E090E033
:100370000895CF93DF93FC0101900020E9F73197B6
:10038000E81BF90BDC019D01281B390B2E173F07D9
:1003900004F5C0910C01D0910D012D91288320917D
:1003A0000C0130910D012F5F3F4F30930D012093D1
:1003B0000C0140910A0150910B012417350719F7E0
:1003C000209112013091130130930D0120930C0103
:1003D000DACF0E94840180E090E0DF91CF91089510
:1003E000789491E09093D8001092E50098E0909373
:1003F000E20094E09093E30093E19093E40090EAAC
:100400009093DB001092DF0097E09093DE0090E085
:10041000292F2295207F2093ED001092EF0010925B
:10042000EE009F5F9630A1F790E29093ED0095E08B
:100430009093F4001092F0001092F5001092F100E9
:100440001092F6001092F20098EF9093F70028E0D7
:10045000829FC00111248093F30088E88093EF000D
:10046000539A8091D80082608093D80080E090E019
:1004700008950F931F93CF93DF93CDB7DEB70DB7DA
:100480001EB78091ED00807F8093ED002091EF00FA
:100490002F70822F90E04DB75EB7481B590B0FB6F7
:1004A000F8945EBF0FBE4DBF4F5F5F4FFA01BF01B3
:1004B000641B750B6817790724F43091FA003193A7
:1004C000F6CF3091F3008091F20061E070E0FB0123
:1004D00002C0EE0FFF1F8A95E2F7CF01807E9927B9
:1004E000E5E095958795EA95E1F702C0660F771FDD
:1004F0003A95E2F7F3E0660F771FFA95E1F7862B5E
:10050000972B682F6F73807C0E94D8008091EF003A
:1005100080688093EF000FB6F8941EBF0FBE0DBF2A
:10052000DF91CF911F910F910895CF93DF9398E0C2
:100530009093ED009091DC0090FDFCCF9091DC0059
:1005400091609093DC001092EE00FA01A22FB0E0CF
:10055000EF01C41BD50BCA17DB0724F491919093CC
:10056000FA00F6CF1092F0001092F1008F7130E493
:10057000839FC00111246F73862B382F3295330F60
:10058000307E3093F200A3E096958795AA95E1F727
:100590008093F30020642093EF008091EE0086FFAB
:1005A000FCCF1092EF001092EE0080E090E0DF911F
:1005B000CF9108951F920F920FB60F9211242F938F
:1005C0003F934F935F936F937F938F939F93AF93DB
:1005D000BF93CF93EF93FF93CFB78091EC009091AF
:1005E000ED009F709093ED009091ED00807F892B3E
:1005F0008093ED008091EE0085FF08C08091EE00B1
:100600008F7D8093EE000E9439020EC08091EE0033
:1006100086FF06C08091EE008F7B8093EE0004C0C1
:100620008091EE001092EE00CFBFFF91EF91CF913D
:10063000BF91AF919F918F917F916F915F914F91FA
:100640003F912F910F900FBE0F901F90189584B17E
:100650008FEF84B9389856986A9A699878948091FF
:1006600002010E94F0010E945D00FFCFCF93DF9353
:100670008230910510F482E090E0E0911601F09153
:10068000170120E030E0A0E0B0E0309739F1408180
:10069000518148175907B8F04817590771F48281FA
:1006A0009381109729F013969C938E9312972CC0E8
:1006B000909317018093160127C02115310531F061
:1006C0004217530718F0A901DB0101C0EF019A019D
:1006D000BD01DF010280F381E02DD7CF2115310567
:1006E000F9F0281B390B2430310580F48A819B8175
:1006F0006115710521F0FB019383828304C09093FF
:10070000170180931601FE01329644C0FE01E20FEC
:10071000F31F8193919322503109398328833AC082
:100720002091140130911501232B41F420910601F1
:100730003091070130931501209314012091040199
:10074000309105012115310541F42DB73EB7409197
:10075000080150910901241B350BE0911401F0911F
:100760001501E217F307A0F42E1B3F0B28173907DA
:1007700078F0AC014E5F5F4F2417350748F04E0FFD
:100780005F1F50931501409314018193919302C010
:10079000E0E0F0E0CF01DF91CF910895CF93DF93B8
:1007A000009709F487C0FC01329713821282C0912E
:1007B0001601D0911701209781F420813181280FF3
:1007C000391F80911401909115018217930779F5D3
:1007D000F0931501E09314016DC0DE0120E030E0DC
:1007E000AE17BF0750F412964D915C9113979D017F
:1007F0004115510509F1DA01F3CFB383A28340819A
:100800005181840F951F8A179B0771F48D919C91DC
:100810001197840F951F02969183808312968D9174
:100820009C911397938382832115310529F4F093CA
:100830001701E09316013EC0D9011396FC93EE9385
:1008400012974D915D91A40FB51FEA17FB0779F43C
:1008500080819181840F951F0296D90111969C93F6
:100860008E938281938113969C938E931297E0E0EE
:10087000F0E08A819B81009719F0FE01EC01F9CF2D
:10088000CE01029628813981820F931F2091140195
:10089000309115012817390769F4309729F410921F
:1008A00017011092160102C013821282D093150113
:0E08B000C0931401DF91CF910895F894FFCF0B
:0A08BE000D000C00000018012000DE
:00000001FF
